:020000040000FA
:100000000C9435000C945D000C945D000C945D0024
:100010000C945D000C945D000C945D000C945D00EC
:100020000C945D000C945D000C945D000C945D00DC
:100030000C945D000C945D000C945D000C945D00CC
:100040000C94AC070C945D000C94BA090C94EC0968
:100050000C945D000C945D000C945D000C945D00AC
:100060000C945D000C945D001C0A11241FBECFEFA0
:10007000D4E0DEBFCDBF11E0A0E0B1E0E2E6F5E103
:1000800002C005900D92A832B107D9F722E0A8E28C
:10009000B1E001C01D92A53EB207E1F710E0C5E353
:1000A000D0E004C02197FE010E94A90AC433D10701
:1000B000C9F70E94770A0C94AF0A0C9400009BE6E3
:1000C0009A95F1F708950895359B0C946400A894CF
:1000D000089508953C983D98449A459A8827992711
:1000E000349B0895359B089581E0089581E008953B
:1000F000F894359B0E94640044983C9A0E945F00EB
:100100000E94B100089581E00895F89445983D9AC1
:100110000E945F003C98449A0E945F003D98459A77
:100120000E945F00359B0E94640044983C9A0E94A4
:100130005F000E94B100089581E0089545983D9ABE
:1001400044983C9A0E945F003D98459A0E945F0047
:10015000359B0E9464003C98449A0E945F0078940A
:1001600008950894881F0C94B600880F11F14598E3
:100170003D9A00000000000028F400003C98449ADA
:100180000C94C60044983C9A0C94C6000E945F00F0
:100190003D98459AA894000000000000359B0E94FD
:1001A00064001AF488270C94EF000E945F000C94FE
:1001B000B50045983D9A000000003C98449A0E9482
:1001C0005F00992788273D98459AA8940000359BA1
:1001D0000E9464003AF3349B81E00E945F000000BB
:1001E000000045983D9A089581E0089571E0459892
:1001F0003D9A3C98449A0000000000000E945F0075
:100200003D98459A0E945F00A894000000000000FD
:10021000359B0E946400F2F0889434990894771F0B
:1002200030F745983D9A803021F03C98449A0C94E0
:100230001B0144983C9A0000000000000E945F00EF
:100240003D98459AA89400000000359B0E946400E8
:100250000E945F000000000045983D9A872F992773
:10026000089580E20895CF93C82F80910701880FE9
:100270000E9478008C2F0E94B10080910701880FA6
:1002800081600E94850081E00E94F600C82F0E94D4
:100290009E008C2FCF910895CF93DF93D82FC62F38
:1002A00080910701880F0E9478008D2F0E94B10075
:1002B0008C2F0E94B100C82F0E949E008C2FDF91CE
:1002C000CF9108951F93CF93DF93C82F162F80915E
:1002D0000701880F0E9478008C2F0E94B100809146
:1002E0000701880F81600E94850080E00E94F6006F
:1002F000D82F81E00E94F600C82F0E949E002D2F6B
:1003000030E08C2F90E0111108C0322F2227822B71
:10031000932BDF91CF911F910895982F8827F7CFC6
:100320000F931F93CF93DF93082FEB01142F80912E
:100330000701880F0E947800802F0E94B1001123CE
:1003400071F08C2F0E94B1008D2F0E94B1000E948D
:100350009E0082E0DF91CF911F910F9108958D2F24
:100360000E94B1008C2FF1CFAF92BF92CF92DF925B
:10037000EF92FF920F931F93CF93DF93C82F8B01C0
:1003800080910701880F0E9478008C2F0E94B10095
:1003900080910701880F81600E94850080E00E94A3
:1003A000F600B82EF8018083A12CC82ED12C76013E
:1003B000F1E0EF1AF1088A2D90E08E159F0554F4B4
:1003C0000196E801C80FD91F80E00E94F6008883DB
:1003D000A394F1CF0C0D1D1D81E00E94F600F801E1
:1003E00080830E949E0081E08B0DDF91CF911F9151
:1003F0000F91FF90EF90DF90CF90BF90AF90089556
:10040000EF92FF921F93CF93DF93C82F7B01142F9E
:1004100080910701880F0E9478008C2F0E94B10004
:10042000812F0E94B100E701E10EF11CCE15DF051E
:1004300021F089910E94B100F9CF0E949E00812F86
:10044000DF91CF911F91FF90EF900895CF93DF93AD
:10045000EC010E94F607988389837A836B83DF918E
:10046000CF9108959C01FC01E60FF71F80E0BF01CA
:10047000621B730B6417750718F49191890FF7CFFE
:100480000895CF93DF9300D0CDB7DEB72091E1027E
:100490003091E202CE0101962115310559F4855EB5
:1004A00092409A83898389819A810F900F90DF917E
:1004B000CF910895821B930BF4CF6F927F928F920E
:1004C0009F92AF92BF92CF92DF92EF92FF920F93E3
:1004D0001F93CF93DF9300D000D000D01F92CDB7F1
:1004E000DEB7982E662E742E852E8901CDB6DEB627
:1004F0000E9441029801285C3F4F82179307C8F57C
:1005000087E0E8E0F1E0DE01119601900D928A9516
:10051000E1F78E010F5F1F4F7E0188E0E80EF11CAE
:10052000F80161918F0184E492E00E941509E016C0
:10053000F106B1F70FB6F894DEBE0FBECDBE0FB612
:10054000F894DEBE0FBECDBE27960FB6F894DEBF80
:100550000FBECDBFDF91CF911F910F91FF90EF9014
:10056000DF90CF90BF90AF909F908F907F906F90D3
:1005700008955801F6E0AF0EB11C8DB79EB78A19E9
:100580009B090FB6F8949EBF0FBE8DBFEDB7FEB7A7
:1005900031967F018DE3EDB7FEB78183C8010296E6
:1005A000F70191838CEF8A0D8283892D8068838384
:1005B00064820115110571F0E72DF82DADB7BEB7B6
:1005C00016969F01200F311FE217F30719F0819152
:1005D0008D93FACF0B5F1F4FA80161E070E0C70158
:1005E0000E943202809329010E0D1F1DF8018083A5
:1005F0008701C8018E199F098A159B0508F09ACFBB
:10060000F80161918F0184E492E00E941509F1CF15
:10061000CF93DF9310923101C3E0D7E08C2F880F86
:100620000E947800882371F00E949E008091310121
:10063000E82FF0E0EE5CFE4FC0838F5F8830C0F49F
:10064000809331010E949E00CF5FC83739F7209117
:10065000310130E042E351E0211104C021E030E0FB
:1006600040E051E062E082E0DF91CF910C945D02C6
:10067000D0933101E7CFAF92BF92CF92DF92EF924A
:10068000FF920F931F93CF93DF93CDB7DEB7CDB615
:10069000DEB64091040150912C01842F90E0052F8B
:1006A00010E0801B910B9C012F5F3F4FC901880F09
:1006B000991F820F931F5C0122E0A20EB11CEDB7BF
:1006C000FEB7EA19FB090FB6F894FEBF0FBEEDBFE7
:1006D0002DB73EB72F5F3F4F79015183F901418319
:1006E0008091040190E0019608171907C0F4609109
:1006F0000601802F0E94620120912C01A801421B5B
:1007000051099A01FA01EE0FFF1FE20FF31FEE0DE0
:10071000FF1D0283938384830F5F1F4FE1CF9501F9
:10072000A70163E082E00E945D020FB6F894DEBE8E
:100730000FBECDBEDF91CF911F910F91FF90EF9033
:10074000DF90CF90BF90AF900895DF92EF92FF922D
:100750000F931F93CF93DF93CDB7DEB7C250D14035
:100760000FB6F894DEBF0FBECDBF10E000E0F12C55
:10077000A89541E0B80180E40E94900182E3E82E50
:1007800082E40E943301D82E87E1D81209C06AE0C2
:1007900070E080E090E00E942708EA94E110F0CF3A
:1007A000E3E8F0E0EC0FFD1FEF0DF11DD082F394B4
:1007B00080E8F8121CC0C8018F579109998381E81D
:1007C000800F8A83DE01AD57BF4FFE01339680E074
:1007D0009D9191938F5F8038D9F722E830E0AE0188
:1007E0004F5F5F4F64E084E00E945D02F12C0F5F79
:1007F0001F4F011588E0180731F1011588E418072B
:1008000029F1011588E8180709F0B2CF64E670E015
:1008100080E090E00E94270821E030E048E251E0CB
:1008200060E08FE00E945D02CE5FDE4F0FB6F8946D
:10083000DEBF0FBECDBFDF91CF911F910F91FF9013
:10084000EF90DF90089500E010E492CF00E010E810
:100850008FCFCF92DF92FF920F931F93CF93DF93AF
:10086000CDB7DEB7C354D1090FB6F894DEBF0FBEC3
:10087000CDBF10E000E093E2C92ED12CCC0EDD1EDE
:1008800081E2C80ED11CA89582E3F82E41E0B801A0
:1008900080E40E94900164E170E080E090E00E94BA
:1008A000270883E40E943301803219F0FA94F11092
:1008B000EDCFBE016D5D7F4F83E40E94B4011983CB
:1008C0000A83FE01B496DE01139681918D93EC1597
:1008D000FD05D9F722E230E0AE014F5F5F4F65E0E2
:1008E00084E00E945D02005E1F4F011588E018073A
:1008F00029F1011588E4180721F1011588E8180786
:1009000011F664E670E080E090E00E94270821E0A4
:1009100030E048E251E060E08FE00E945D02CD5B94
:10092000DF4F0FB6F894DEBF0FBECDBFDF91CF9182
:100930001F910F91FF90DF90CF90089500E010E499
:10094000A2CF00E010E89FCF0E946A0026E040E9B5
:1009500050ED63E070E084E492E00E94620988E177
:1009600098E20FB6F894A895809360000FBE90931C
:10097000600021E030E048E251E061E080E00C946A
:100980005D022F923F924F925F926F927F928F9271
:100990009F92AF92BF92CF92DF92EF92FF920F930E
:1009A0001F93CF93DF9300D000D000D01F92CDB71C
:1009B000DEB72DB63EB684E492E00E948808181691
:1009C00019060CF038C184E492E00E94A2088D332D
:1009D00009F0BAC28DB69EB60E94F6076B017C0183
:1009E000B12C84E492E00E9488080297FCF4BB20BA
:1009F00039F021E030E040E051E066E08FE0F9C0FE
:100A00000E94F607AB01BC014C195D096E097F0914
:100A10008091010190910201B0E0A0E0BB24B39469
:100A200084179507A607B707E0F2DACFB110E1CF38
:100A300084E492E00E94A208A82E84E492E00E943E
:100A4000A2088F83E12CFA2CE80EF11C87010F5FBE
:100A50001F4F42E0E41AF1085BEFE51653E0F5069C
:100A600018F50E94F6072B013C0184E492E00E94F5
:100A7000880880179107F0F4B110BBCF0E94F607E9
:100A8000AB01BC014419550966097709809103013E
:100A900090E0B0E0A0E0BB24B39484179507A607CC
:100AA000B70718F3B12CE1CF21E030E040E051E08E
:100AB00061E0A4CFB1109DCF84E492E00E94A2082F
:100AC000482E84E492E00E94A2086C018DB79EB784
:100AD0008E199F090FB6F8949EBF0FBE8DBF0DB73C
:100AE0001EB70F5F1F4FE114F10481F0380184E459
:100AF00092E00E94A208D3018D933D01CD01801B9D
:100B0000910B8E159F0598F3BB24B39484E492E077
:100B10000E94A208BF81AB0EA40CAC0CBB2051F00C
:100B2000F8019F01201B310B2E153F0518F4919100
:100B3000A90EF7CF21E030E040E051E065E08A11F6
:100B40005DCF842D8F70823009F456C050F4882315
:100B5000B9F18130F1F121E030E040E051E062E0B4
:100B60004DCF843009F4EAC008F49AC0853099F773
:100B7000DD24B2E0CB16D10409F467C1E3E0CE1660
:100B8000D10409F47FC1CA94CD2809F0E6C0BB2086
:100B900009F475C042E0E416F10408F470C0D8010D
:100BA0008C91898311966C916A830E944C018B838E
:100BB00023E030E0AE014F5F5F4F61E085E019C098
:100BC00021E030E048E251E060E080E00E945D0218
:100BD000FFCF86E0EFE0F1E0DE01119601900D928B
:100BE0008A95E1F726E030E0AE014F5F5F4F60E0AD
:100BF00081E00E945D021AC0DD24E2E0CE16D1043D
:100C000099F0F3E0CF16D104A1F1CA94CD2809F0F0
:100C1000A4C08DE291E00E94260224E030E04DE283
:100C200051E061E082E0E5CF0E9408030FB6F8943E
:100C30009EBE0FBE8DBE0FB6F8943EBE0FBE2DBE3B
:100C400027960FB6F894DEBF0FBECDBFDF91CF91D0
:100C50001F910F91FF90EF90DF90CF90BF90AF90DA
:100C60009F908F907F906F905F904F903F902F90CC
:100C70000895BB2021F052E0E516F10430F421E0A4
:100C800030E040E051E064E0B9CED8018C9180932F
:100C90002C0111968C91809304010E943B03C6CFD6
:100CA000DD24B2E0CB16D10421F1E3E0CE16D1046D
:100CB00059F1CA94CD2809F050C0198280910601DB
:100CC000882311F081E0898380910501882319F040
:100CD00089818260898380912A0190912B019A8376
:100CE0008B8323E030E0AE014F5F5F4F61E083E034
:100CF00080CFBB2021F2D8018C918093070121E0A5
:100D000030E0A80162E0F3CFBB2009F4B8CFF801CE
:100D1000808180FF0DC091E09093060181FF0BC0A0
:100D200081E08093050121E030E0A80163E0DFCF9E
:100D300010920601F3CF10920501F5CFDD24F3E008
:100D4000CF16D10409F441C074F451E0C516D104A2
:100D5000B1F082E0C816D10419F121E030E040E0A2
:100D600051E063E04BCE94E0C916D10409F46AC0A7
:100D7000A5E0CA16D10489F70E94290457CFBB20E9
:100D800009F47DCFF801808189830E9433018A8331
:100D900022E030E0AE014F5F5F4F61E084E029CF99
:100DA000BB2009F46CCF60910601D8018C910E94A0
:100DB0006201F801208129839A838B8323E030E04C
:100DC000AE014F5F5F4F62E0E9CFEDB6FEB6B11006
:100DD0000EC021E030E040E051E064E08FE00E948E
:100DE0005D020FB6F894FEBE0FBEEDBE1FCF6AE3E4
:100DF00071E0D8018C910E94B40121E0280F30E00D
:100E0000EDB7FEB7E21BF30B0FB6F894FEBF0FBEB3
:100E1000EDBF4DB75EB74F5F5F4FD8019C91918397
:100E200070E060E0681758F4FA01E60FF71FDB0185
:100E3000A65CBE4F9C9191836F5F7F4FF3CF63E0C1
:100E400084E0CDCF0E94A503F1CEBB2009F417CFDB
:100E5000B3E0EB16F10408F412CFF8018081898326
:100E600061816A8392819B83762F692F409105016E
:100E70000E9490018C8324E030E0AE014F5F5F4F11
:100E800062E09CCE4DB65EB6BB2021F0F2E0EF16DC
:100E9000F10470F421E030E040E051E064E08FE0E4
:100EA0000E945D020FB6F8945EBE0FBE4DBEBECE70
:100EB000CC24C394CE0CD12C560141E0A41AB10825
:100EC0008DB79EB78C199D090FB6F8949EBF0FBEC3
:100ED0008DBFADB7BEB711963D014FEF4E0DEDB7CB
:100EE000FEB7E41BF1090FB6F894FEBF0FBEEDBFCD
:100EF0006DB77EB76F5F7F4F20E0822F90E08A153D
:100F00009B055CF0D8011196962FFB018E2F891B53
:100F1000841768F48D918193F9CFF301E80FF91FDD
:100F2000800F911FDC018C9180832F5FE6CFF80149
:100F300080810E940002F301EA0DFB1D808396016F
:100F4000A30163E085E0ACCF84E492E00E94A208B4
:100F500072CEA8950C94C1041F920F920FB60F92F7
:100F600011242F933F938F939F93AF93BF938091BF
:100F7000400290914102A0914202B091430230910F
:100F80003F0223E0230F2D3768F126E8230F029656
:100F9000A11DB11D20933F02809340029093410216
:100FA000A0934202B093430280913B0290913C0295
:100FB000A0913D02B0913E020196A11DB11D80930A
:100FC0003B0290933C02A0933D02B0933E02BF913E
:100FD000AF919F918F913F912F910F900FBE0F90E6
:100FE0001F9018950196A11DB11DD4CF2FB7F8946D
:100FF00060914002709141028091420290914302BF
:101000002FBF08953FB7F89480913B0290913C0226
:10101000A0913D02B0913E0226B5A89B05C02F3F8E
:1010200019F00196A11DB11D3FBFBA2FA92F982F0E
:101030008827BC01CD01620F711D811D911D42E009
:10104000660F771F881F991F4A95D1F708958F92D1
:101050009F92AF92BF92CF92DF92EF92FF926B017D
:101060007C010E9402084B015C01C114D104E1041F
:10107000F104E9F00E94860A0E94020868197909C1
:101080008A099B09683E73408105910570F321E050
:10109000C21AD108E108F10888EE880E83E0981E94
:1010A000A11CB11CC114D104E104F10429F7FF9083
:1010B000EF90DF90CF90BF90AF909F908F9008956A
:1010C000789484B5836084BD85B5836085BDEEE684
:1010D000F0E0808181608083E1E8F0E082E080835D
:1010E000808181608083E0E8F0E08081816080839E
:1010F000E1EBF0E0808184608083E0EBF0E08081D0
:101100008160808387E880937A001092C1000895FF
:10111000FC01918D228D892F90E0805C9F4F821B76
:1011200091098F7399270895FC01918D828D9817ED
:1011300031F0828DE80FF11D858D90E008958FEFDD
:101140009FEF0895FC01918D828D981761F0A28D1B
:10115000AE0FBF2FB11D5D968C91928D9F5F9F73D7
:10116000928F90E008958FEF9FEF0895FC01538DCB
:10117000448D252F30E0842F90E0821B930B541771
:1011800010F0CF9608950197089582E19AE0892B97
:1011900049F080E090E0892B29F00E94120A811129
:1011A0000C9400000895FC01A48DA80FB92FB11D67
:1011B000A35ABF4F2C91848D90E001968F7399278D
:1011C000848FA689B7892C93A089B1898C9183706B
:1011D00080648C93938D848D981306C00288F38964
:1011E000E02D80818F7D80830895CF93DF93EC0184
:1011F000888D8823B9F0AA89BB89E889F9898C91FF
:1012000085FD03C0808186FD0DC00FB607FCF7CFBA
:101210008C9185FFF2CF808185FFEDCFCE010E94BA
:10122000D308E9CFDF91CF910895EF92FF920F930A
:101230001F93CF93DF93EC0181E0888F9B8D8C8D82
:1012400098131AC0E889F989808185FF15C09FB776
:10125000F894EE89FF896083E889F9898081837039
:10126000806480839FBF81E090E0DF91CF911F91E8
:101270000F91FF90EF900895F62E0B8D10E00F5F09
:101280001F4F0F731127E02E8C8D8E110CC00FB6DF
:1012900007FCFACFE889F989808185FFF5CFCE0177
:1012A0000E94D308F1CFEB8DEC0FFD2FF11DE35A17
:1012B000FF4FF0829FB7F8940B8FEA89FB898081FA
:1012C0008062CFCFCF92DF92EF92FF921F93CF93A6
:1012D000DF93EC016A017B01122FE889F98982E032
:1012E0008083C11481EED806E104F104A1F060E02E
:1012F00079E08DE390E0A70196010E94870A2150D2
:10130000310941095109569547953795279521157A
:1013100080E1380798F0E889F989108260E874E87C
:101320008EE190E0A70196010E94870A21503109C1
:10133000410951095695479537952795EC85FD85C7
:101340003083EE85FF852083188EEC89FD8910831C
:10135000EA89FB89808188698083EA89FB898081A9
:101360008F7D8083DF91CF911F91FF90EF90DF9071
:10137000CF9008951F920F920FB60F9211242F93C2
:101380008F939F93EF93FF93E0915402F091550256
:101390008081E0915A02F0915B0282FD1BC0908136
:1013A00080915D028F5F8F7320915E02821741F002
:1013B000E0915D02F0E0EC5BFD4F958F80935D0264
:1013C000FF91EF919F918F912F910F900FBE0F90F2
:1013D0001F9018958081F4CF1F920F920FB60F9235
:1013E00011242F933F934F935F936F937F938F932A
:1013F0009F93AF93BF93EF93FF9384E492E00E9497
:10140000D308FF91EF91BF91AF919F918F917F9101
:101410006F915F914F913F912F910F900FBE0F9061
:101420001F90189584E492E00E94880821E0892B9F
:1014300009F420E0822F0895E4E4F2E0138212829E
:1014400088EE93E0A0E0B0E084839583A683B78321
:1014500089E191E09183808385EC90E09587848792
:1014600084EC90E09787868780EC90E0918B808B6E
:1014700081EC90E0938B828B82EC90E0958B848B57
:1014800086EC90E0978B868B118E128E138E148EC5
:101490000895AF92BF92CF92DF92EF92FF920F9397
:1014A0001F93CF93DF936C017B018B01040F151FFA
:1014B000EB015E01AE18BF08C017D10759F0699162
:1014C000D601ED91FC910190F081E02DC6010995C6
:1014D000892B79F7C501DF91CF911F910F91FF9073
:1014E000EF90DF90CF90BF90AF90089508950E9445
:1014F00060080E94760A0E94A404C5ECD8E00E940D
:10150000A9072097E1F30E94C508F9CF0895A1E249
:101510001A2EAA1BBB1BFD010DC0AA1FBB1FEE1F6D
:10152000FF1FA217B307E407F50720F0A21BB30BB8
:10153000E40BF50B661F771F881F991F1A9469F734
:1015400060957095809590959B01AC01BD01CF0190
:101550000895EE0FFF1F0590F491E02D0994F89483
:10156000FFCFFFC80064FF01010B3D00038FFDFFAB
:101570008E53424841434B000000001509490AB60A
:0A15800008F5088808A20894080086
:103E000001C0B7C0112484B790E89093610010926C
:103E10006100882361F0982F9A70923041F081FF01
:103E200002C097EF94BF282E80E0C6D0E9C085E09D
:103E30008093810082E08093C00088E18093C1007C
:103E400080E18093C40086E08093C2008EE0B4D00D
:103E5000259A84E020E33CEF91E0309385002093A5
:103E6000840096BBB09BFECF1D9AA8954091C000E0
:103E700047FD02C0815089F793D0813479F490D006
:103E8000182FA0D0123811F480E004C088E0113857
:103E900009F083E07ED080E17CD0EECF823419F44B
:103EA00084E198D0F8CF853411F485E0FACF8535D8
:103EB00041F476D0C82F74D0D82FCC0FDD1F82D01C
:103EC000EACF863519F484E085D0DECF843691F5CB
:103ED00067D066D0F82E64D0D82E00E011E05801EB
:103EE0008FEFA81AB80A5CD0F80180838501FA1018
:103EF000F6CF68D0F5E4DF1201C0FFCF50E040E01C
:103F000063E0CE0136D08E01E0E0F1E06F0182E0A7
:103F1000C80ED11C4081518161E0C8012AD00E5FDA
:103F20001F4FF601FC10F2CF50E040E065E0CE01FB
:103F300020D0B1CF843771F433D032D0F82E30D0C6
:103F400041D08E01F80185918F0123D0FA94F110B0
:103F5000F9CFA1CF853739F435D08EE11AD084E975
:103F600018D08BE097CF813509F0A9CF88E024D015
:103F7000A6CFFC010A0167BFE895112407B600FC33
:103F8000FDCF667029F0452B19F481E187BFE895D4
:103F900008959091C00095FFFCCF8093C6000895CE
:103FA0008091C00087FFFCCF8091C00084FD01C0DC
:103FB000A8958091C6000895E0E6F0E098E190832E
:103FC00080830895EDDF803219F088E0F5DFFFCFC0
:103FD00084E1DFCFCF93C82FE3DFC150E9F7CF9162
:023FE000F1CF1F
:023FFE000008B9
:00000001FF
